{
  "contractName": "StrayAnimals",
  "abi": [
    {
      "inputs": [],
      "stateMutability": "nonpayable",
      "type": "constructor"
    },
    {
      "anonymous": false,
      "inputs": [
        {
          "indexed": false,
          "internalType": "uint256",
          "name": "id",
          "type": "uint256"
        },
        {
          "indexed": false,
          "internalType": "string",
          "name": "name",
          "type": "string"
        },
        {
          "indexed": false,
          "internalType": "string",
          "name": "breed",
          "type": "string"
        },
        {
          "indexed": false,
          "internalType": "uint256",
          "name": "age",
          "type": "uint256"
        },
        {
          "indexed": false,
          "internalType": "string",
          "name": "health",
          "type": "string"
        },
        {
          "indexed": false,
          "internalType": "string",
          "name": "image",
          "type": "string"
        },
        {
          "indexed": false,
          "internalType": "address",
          "name": "adopter",
          "type": "address"
        },
        {
          "indexed": false,
          "internalType": "bool",
          "name": "isAdopted",
          "type": "bool"
        }
      ],
      "name": "PetAdded",
      "type": "event"
    },
    {
      "anonymous": false,
      "inputs": [
        {
          "indexed": false,
          "internalType": "uint256",
          "name": "id",
          "type": "uint256"
        },
        {
          "indexed": false,
          "internalType": "address",
          "name": "adopter",
          "type": "address"
        },
        {
          "indexed": false,
          "internalType": "bool",
          "name": "isAdopted",
          "type": "bool"
        }
      ],
      "name": "PetAdopted",
      "type": "event"
    },
    {
      "inputs": [],
      "name": "petCount",
      "outputs": [
        {
          "internalType": "uint256",
          "name": "",
          "type": "uint256"
        }
      ],
      "stateMutability": "view",
      "type": "function",
      "constant": true
    },
    {
      "inputs": [
        {
          "internalType": "uint256",
          "name": "",
          "type": "uint256"
        }
      ],
      "name": "pets",
      "outputs": [
        {
          "internalType": "uint256",
          "name": "id",
          "type": "uint256"
        },
        {
          "internalType": "string",
          "name": "name",
          "type": "string"
        },
        {
          "internalType": "string",
          "name": "breed",
          "type": "string"
        },
        {
          "internalType": "uint256",
          "name": "age",
          "type": "uint256"
        },
        {
          "internalType": "string",
          "name": "health",
          "type": "string"
        },
        {
          "internalType": "string",
          "name": "image",
          "type": "string"
        },
        {
          "internalType": "address",
          "name": "adopter",
          "type": "address"
        },
        {
          "internalType": "bool",
          "name": "isAdopted",
          "type": "bool"
        }
      ],
      "stateMutability": "view",
      "type": "function",
      "constant": true
    },
    {
      "inputs": [
        {
          "internalType": "string",
          "name": "_name",
          "type": "string"
        },
        {
          "internalType": "string",
          "name": "_breed",
          "type": "string"
        },
        {
          "internalType": "uint256",
          "name": "_age",
          "type": "uint256"
        },
        {
          "internalType": "string",
          "name": "_health",
          "type": "string"
        },
        {
          "internalType": "string",
          "name": "_image",
          "type": "string"
        }
      ],
      "name": "addPet",
      "outputs": [],
      "stateMutability": "nonpayable",
      "type": "function"
    },
    {
      "inputs": [
        {
          "internalType": "uint256",
          "name": "_petId",
          "type": "uint256"
        }
      ],
      "name": "adoptPet",
      "outputs": [],
      "stateMutability": "nonpayable",
      "type": "function"
    },
    {
      "inputs": [],
      "name": "getpetCount",
      "outputs": [
        {
          "internalType": "uint256",
          "name": "_petCount",
          "type": "uint256"
        }
      ],
      "stateMutability": "view",
      "type": "function",
      "constant": true
    },
    {
      "inputs": [
        {
          "internalType": "uint256",
          "name": "_petId",
          "type": "uint256"
        }
      ],
      "name": "getPetInfo",
      "outputs": [
        {
          "internalType": "string",
          "name": "_name",
          "type": "string"
        },
        {
          "internalType": "string",
          "name": "_breed",
          "type": "string"
        },
        {
          "internalType": "uint256",
          "name": "_age",
          "type": "uint256"
        },
        {
          "internalType": "string",
          "name": "_health",
          "type": "string"
        },
        {
          "internalType": "string",
          "name": "_image",
          "type": "string"
        },
        {
          "internalType": "address",
          "name": "_adopter",
          "type": "address"
        },
        {
          "internalType": "bool",
          "name": "_isAdopted",
          "type": "bool"
        }
      ],
      "stateMutability": "view",
      "type": "function",
      "constant": true
    }
  ],
  "bytecode": "0x6080604052600080553480156200001557600080fd5b50620000e76040518060400160405280600981526020017f5468756e67746f6e6700000000000000000000000000000000000000000000008152506040518060400160405280600a81526020017f4368696e6368696c6c610000000000000000000000000000000000000000000081525060046040518060400160405280600a81526020017f56616363696e6174656400000000000000000000000000000000000000000000815250604051806106c001604052806106898152602001620029b561068991396200036060201b60201c565b620001b86040518060400160405280600381526020017f536f6d00000000000000000000000000000000000000000000000000000000008152506040518060400160405280600581526020017f536869626100000000000000000000000000000000000000000000000000000081525060056040518060400160405280600a81526020017f56616363696e6174656400000000000000000000000000000000000000000000815250604051806106c0016040528061068c815260200162001c9d61068c91396200036060201b60201c565b620002896040518060400160405280600581526020017f526f636b790000000000000000000000000000000000000000000000000000008152506040518060400160405280600581526020017f4d6f67677900000000000000000000000000000000000000000000000000000081525060026040518060400160405280600a81526020017f56616363696e6174656400000000000000000000000000000000000000000000815250604051806106c0016040528061068c81526020016200232961068c91396200036060201b60201c565b6200035a6040518060400160405280600481526020017f4d6f6a69000000000000000000000000000000000000000000000000000000008152506040518060400160405280600581526020017f436f72676900000000000000000000000000000000000000000000000000000081525060056040518060400160405280600a81526020017f56616363696e6174656400000000000000000000000000000000000000000000815250604051806106c0016040528061068c81526020016200303e61068c91396200036060201b60201c565b620009e0565b600080815480929190620003749062000923565b919050555060405180610100016040528060005481526020018681526020018581526020018481526020018381526020018281526020013373ffffffffffffffffffffffffffffffffffffffff1681526020016000151581525060016000805481526020019081526020016000206000820151816000015560208201518160010190805190602001906200040a929190620005bb565b50604082015181600201908051906020019062000429929190620005bb565b5060608201518160030155608082015181600401908051906020019062000452929190620005bb565b5060a082015181600501908051906020019062000471929190620005bb565b5060c08201518160060160006101000a81548173ffffffffffffffffffffffffffffffffffffffff021916908373ffffffffffffffffffffffffffffffffffffffff16021790555060e08201518160060160146101000a81548160ff021916908315150217905550905050600085511162000523576040517f08c379a00000000000000000000000000000000000000000000000000000000081526004016200051a9062000763565b60405180910390fd5b60008451116200056a576040517f08c379a0000000000000000000000000000000000000000000000000000000008152600401620005619062000785565b60405180910390fd5b7f0fd58624f3d6d85b3bcb642896b74c338f4ca6a0b6cc59b7d94c9d95948f576e6000548686868686336000604051620005ac989796959493929190620007a7565b60405180910390a15050505050565b828054620005c990620008ed565b90600052602060002090601f016020900481019282620005ed576000855562000639565b82601f106200060857805160ff191683800117855562000639565b8280016001018555821562000639579182015b82811115620006385782518255916020019190600101906200061b565b5b5090506200064891906200064c565b5090565b5b80821115620006675760008160009055506001016200064d565b5090565b62000676816200086d565b82525050565b620006878162000881565b82525050565b60006200069a8262000851565b620006a681856200085c565b9350620006b8818560208601620008b7565b620006c381620009cf565b840191505092915050565b6000620006dd6015836200085c565b91507f506574206e616d652069732072657175697265642e00000000000000000000006000830152602082019050919050565b60006200071f6016836200085c565b91507f5065742062726565642069732072657175697265642e000000000000000000006000830152602082019050919050565b6200075d81620008ad565b82525050565b600060208201905081810360008301526200077e81620006ce565b9050919050565b60006020820190508181036000830152620007a08162000710565b9050919050565b600061010082019050620007bf600083018b62000752565b8181036020830152620007d3818a6200068d565b90508181036040830152620007e981896200068d565b9050620007fa606083018862000752565b81810360808301526200080e81876200068d565b905081810360a08301526200082481866200068d565b90506200083560c08301856200066b565b6200084460e08301846200067c565b9998505050505050505050565b600081519050919050565b600082825260208201905092915050565b60006200087a826200088d565b9050919050565b60008115159050919050565b600073ffffffffffffffffffffffffffffffffffffffff82169050919050565b6000819050919050565b60005b83811015620008d7578082015181840152602081019050620008ba565b83811115620008e7576000848401525b50505050565b600060028204905060018216806200090657607f821691505b602082108114156200091d576200091c620009a0565b5b50919050565b60006200093082620008ad565b91507fffffffffffffffffffffffffffffffffffffffffffffffffffffffffffffffff82141562000966576200096562000971565b5b600182019050919050565b7f4e487b7100000000000000000000000000000000000000000000000000000000600052601160045260246000fd5b7f4e487b7100000000000000000000000000000000000000000000000000000000600052602260045260246000fd5b6000601f19601f8301169050919050565b6112ad80620009f06000396000f3fe608060405234801561001057600080fd5b50600436106100625760003560e01c806319b815771461006757806327074bf814610083578063656ae1db146100a157806369c3f316146100bd578063cd619f58146100f3578063cfb869bf14610111575b600080fd5b610081600480360381019061007c9190610cba565b610148565b005b61008b61031e565b6040516100989190610f54565b60405180910390f35b6100bb60048036038101906100b69190610be3565b610327565b005b6100d760048036038101906100d29190610cba565b610570565b6040516100ea9796959493929190610e49565b60405180910390f35b6100fb610828565b6040516101089190610f54565b60405180910390f35b61012b60048036038101906101269190610cba565b61082e565b60405161013f989796959493929190610fa6565b60405180910390f35b60006001600083815260200190815260200160002090508060060160009054906101000a900473ffffffffffffffffffffffffffffffffffffffff1673ffffffffffffffffffffffffffffffffffffffff163373ffffffffffffffffffffffffffffffffffffffff1614156101f2576040517f08c379a00000000000000000000000000000000000000000000000000000000081526004016101e990610ed4565b60405180910390fd5b600015158160060160149054906101000a900460ff1615151461024a576040517f08c379a000000000000000000000000000000000000000000000000000000000815260040161024190610f34565b60405180910390fd5b338160060160006101000a81548173ffffffffffffffffffffffffffffffffffffffff021916908373ffffffffffffffffffffffffffffffffffffffff16021790555060018160060160146101000a81548160ff0219169083151502179055507f4e87641277b3c24729c802cf2d3d85841a2df4c842386181e1baf9550ccc07bc828260060160009054906101000a900473ffffffffffffffffffffffffffffffffffffffff168360060160149054906101000a900460ff1660405161031293929190610f6f565b60405180910390a15050565b60008054905090565b60008081548092919061033990611179565b919050555060405180610100016040528060005481526020018681526020018581526020018481526020018381526020018281526020013373ffffffffffffffffffffffffffffffffffffffff1681526020016000151581525060016000805481526020019081526020016000206000820151816000015560208201518160010190805190602001906103cd929190610ac3565b5060408201518160020190805190602001906103ea929190610ac3565b50606082015181600301556080820151816004019080519060200190610411929190610ac3565b5060a082015181600501908051906020019061042e929190610ac3565b5060c08201518160060160006101000a81548173ffffffffffffffffffffffffffffffffffffffff021916908373ffffffffffffffffffffffffffffffffffffffff16021790555060e08201518160060160146101000a81548160ff02191690831515021790555090505060008551116104dd576040517f08c379a00000000000000000000000000000000000000000000000000000000081526004016104d490610ef4565b60405180910390fd5b6000845111610521576040517f08c379a000000000000000000000000000000000000000000000000000000000815260040161051890610f14565b60405180910390fd5b7f0fd58624f3d6d85b3bcb642896b74c338f4ca6a0b6cc59b7d94c9d95948f576e6000548686868686336000604051610561989796959493929190610fa6565b60405180910390a15050505050565b60608060006060806000806000600160008a815260200190815260200160002090508060010181600201826003015483600401846005018560060160009054906101000a900473ffffffffffffffffffffffffffffffffffffffff168660060160149054906101000a900460ff168680546105ea90611147565b80601f016020809104026020016040519081016040528092919081815260200182805461061690611147565b80156106635780601f1061063857610100808354040283529160200191610663565b820191906000526020600020905b81548152906001019060200180831161064657829003601f168201915b5050505050965085805461067690611147565b80601f01602080910402602001604051908101604052809291908181526020018280546106a290611147565b80156106ef5780601f106106c4576101008083540402835291602001916106ef565b820191906000526020600020905b8154815290600101906020018083116106d257829003601f168201915b5050505050955083805461070290611147565b80601f016020809104026020016040519081016040528092919081815260200182805461072e90611147565b801561077b5780601f106107505761010080835404028352916020019161077b565b820191906000526020600020905b81548152906001019060200180831161075e57829003601f168201915b5050505050935082805461078e90611147565b80601f01602080910402602001604051908101604052809291908181526020018280546107ba90611147565b80156108075780601f106107dc57610100808354040283529160200191610807565b820191906000526020600020905b8154815290600101906020018083116107ea57829003601f168201915b50505050509250975097509750975097509750975050919395979092949650565b60005481565b600160205280600052604060002060009150905080600001549080600101805461085790611147565b80601f016020809104026020016040519081016040528092919081815260200182805461088390611147565b80156108d05780601f106108a5576101008083540402835291602001916108d0565b820191906000526020600020905b8154815290600101906020018083116108b357829003601f168201915b5050505050908060020180546108e590611147565b80601f016020809104026020016040519081016040528092919081815260200182805461091190611147565b801561095e5780601f106109335761010080835404028352916020019161095e565b820191906000526020600020905b81548152906001019060200180831161094157829003601f168201915b50505050509080600301549080600401805461097990611147565b80601f01602080910402602001604051908101604052809291908181526020018280546109a590611147565b80156109f25780601f106109c7576101008083540402835291602001916109f2565b820191906000526020600020905b8154815290600101906020018083116109d557829003601f168201915b505050505090806005018054610a0790611147565b80601f0160208091040260200160405190810160405280929190818152602001828054610a3390611147565b8015610a805780601f10610a5557610100808354040283529160200191610a80565b820191906000526020600020905b815481529060010190602001808311610a6357829003601f168201915b5050505050908060060160009054906101000a900473ffffffffffffffffffffffffffffffffffffffff16908060060160149054906101000a900460ff16905088565b828054610acf90611147565b90600052602060002090601f016020900481019282610af15760008555610b38565b82601f10610b0a57805160ff1916838001178555610b38565b82800160010185558215610b38579182015b82811115610b37578251825591602001919060010190610b1c565b5b509050610b459190610b49565b5090565b5b80821115610b62576000816000905550600101610b4a565b5090565b6000610b79610b7484611071565b611040565b905082815260208101848484011115610b9157600080fd5b610b9c848285611105565b509392505050565b600082601f830112610bb557600080fd5b8135610bc5848260208601610b66565b91505092915050565b600081359050610bdd81611260565b92915050565b600080600080600060a08688031215610bfb57600080fd5b600086013567ffffffffffffffff811115610c1557600080fd5b610c2188828901610ba4565b955050602086013567ffffffffffffffff811115610c3e57600080fd5b610c4a88828901610ba4565b9450506040610c5b88828901610bce565b935050606086013567ffffffffffffffff811115610c7857600080fd5b610c8488828901610ba4565b925050608086013567ffffffffffffffff811115610ca157600080fd5b610cad88828901610ba4565b9150509295509295909350565b600060208284031215610ccc57600080fd5b6000610cda84828501610bce565b91505092915050565b610cec816110bd565b82525050565b610cfb816110cf565b82525050565b6000610d0c826110a1565b610d1681856110ac565b9350610d26818560208601611114565b610d2f8161124f565b840191505092915050565b6000610d47601d836110ac565b91507f596f752063616e27742061646f707420796f7572206f776e207065742e0000006000830152602082019050919050565b6000610d876015836110ac565b91507f506574206e616d652069732072657175697265642e00000000000000000000006000830152602082019050919050565b6000610dc76016836110ac565b91507f5065742062726565642069732072657175697265642e000000000000000000006000830152602082019050919050565b6000610e076014836110ac565b91507f50657420616c72656164792061646f707465642e0000000000000000000000006000830152602082019050919050565b610e43816110fb565b82525050565b600060e0820190508181036000830152610e63818a610d01565b90508181036020830152610e778189610d01565b9050610e866040830188610e3a565b8181036060830152610e988187610d01565b90508181036080830152610eac8186610d01565b9050610ebb60a0830185610ce3565b610ec860c0830184610cf2565b98975050505050505050565b60006020820190508181036000830152610eed81610d3a565b9050919050565b60006020820190508181036000830152610f0d81610d7a565b9050919050565b60006020820190508181036000830152610f2d81610dba565b9050919050565b60006020820190508181036000830152610f4d81610dfa565b9050919050565b6000602082019050610f696000830184610e3a565b92915050565b6000606082019050610f846000830186610e3a565b610f916020830185610ce3565b610f9e6040830184610cf2565b949350505050565b600061010082019050610fbc600083018b610e3a565b8181036020830152610fce818a610d01565b90508181036040830152610fe28189610d01565b9050610ff16060830188610e3a565b81810360808301526110038187610d01565b905081810360a08301526110178186610d01565b905061102660c0830185610ce3565b61103360e0830184610cf2565b9998505050505050505050565b6000604051905081810181811067ffffffffffffffff8211171561106757611066611220565b5b8060405250919050565b600067ffffffffffffffff82111561108c5761108b611220565b5b601f19601f8301169050602081019050919050565b600081519050919050565b600082825260208201905092915050565b60006110c8826110db565b9050919050565b60008115159050919050565b600073ffffffffffffffffffffffffffffffffffffffff82169050919050565b6000819050919050565b82818337600083830152505050565b60005b83811015611132578082015181840152602081019050611117565b83811115611141576000848401525b50505050565b6000600282049050600182168061115f57607f821691505b60208210811415611173576111726111f1565b5b50919050565b6000611184826110fb565b91507fffffffffffffffffffffffffffffffffffffffffffffffffffffffffffffffff8214156111b7576111b66111c2565b5b600182019050919050565b7f4e487b7100000000000000000000000000000000000000000000000000000000600052601160045260246000fd5b7f4e487b7100000000000000000000000000000000000000000000000000000000600052602260045260246000fd5b7f4e487b7100000000000000000000000000000000000000000000000000000000600052604160045260246000fd5b6000601f19601f8301169050919050565b611269816110fb565b811461127457600080fd5b5056fea26469706673582212209f6782da516c66e02720e3ee2ef610669c3c12e380807ca6373c64229a08213b64736f6c6343000800003368747470733a2f2f6c68332e676f6f676c6575736572636f6e74656e742e636f6d2f666966652f414c73366a5f4757472d4f50622d6a5f354a33453062694569484356684a694e2d4d4f724252356e68525734584f51316e7a3152515032635034456c3535307948697538345a3242326e4e755448666f5062652d786f62766f50415070445a55475832726c636f6d6d4f313537476f507435326979704f516c566e4437584e61617244305968387266316736654a6b4550777370316230355752794b53544e6f73684832685348476536526b66396a513936334d38746c526e75633972336a71726d3271307351374a3732625f635f65454472695a744458423272746751614c646a7a41586a4c59466e4645474164667646333275704e6e334448564a4473725a7932504c5a4a775854354b565339495351637072776b3344714a336d77476c4b615f596b696e634a45414379614a36555f524b594d354b335154724c6a5147515a2d754d565048787568577476745a656f3468635a31716532624a43724f31564965423170576174724d584d543930653756624279687341496c71617a6d675a776c7a6b596f544e7a4b4f75486e63383975665f7444484d7a71316c686b58574c47586b32657552566a4a6b6e6c4e6e4e5a7648464830354a6136694f45577351464176337559705853393253427242625a74696f634f374c3645714835306659654e56344a3248444f6c4b33344d5f4537714e657a416a7655397737675547374b59417755777577675f3377446c726863696a4a774338673170615554664831774869586e4e706d584844356a3241394e6e776d6c5330794676564d644856525854484778595f485f6d4f52306f4c63465375496154396845686a725949306352725259644241704941394461575f6d4e5a6e736b4674316e307a38507a656d484f74776e6f39734f72526a4a38705f465131745374666f6d425f677539775554314b514b6e61434d6c47456934786569666c7570647577434f4533394d573541694a4a724b367244302d644369493962784461444b56426c4d36746f3362675a454e472d36573666357946622d6a3644366e5a514b77504e79796b336d7468626c73794843766b493047614c35366d464d3534636837684a654c4867756a6b4a416d444856325463586161664a33314a4b6a65725a77513670344d6f795659676535306b4c6c4f716936537764524d532d426b564644484457685235794837787052474c42506170634f494768752d533676445562774c344e742d5a45386877495a6d6178426d33764830495958557366784d7778714b46646277713967476c346f7a5f6e756648425f5564664f664f79557a6e6a4f626c754d38794d5f516f5937336b4a597a72325061623956456e457362375751364c6c64687738437534594d726e787765656c7a7a4239686d2d475262506b63673932485473443347523069335165686d62793552783655772d674b455876393955653776705578583266546b414b61457965366677497467597a6b57514830526770674c796a453978646d7353765570314b70556c477257524b4b7648795930304d4155384a755631474569334c63346664383070455f7130416d694f364a357578625269497864385f5a41712d4f30694a5f3942544d6654683549646e575a784867503230384279776b3674305478764b582d4d6a6d2d3171614279623945494e564e3179627144383058464930313158536e736f385572722d457470464e464f624661456b70586d486c34613478486230733941464d3756714f56744d5756554761464d426f69667579384f547a544e3734785372544b54685878707264434756636278724e6837456f744e33746b6878366e4f746c424a47476c302d38595f675748643174666a5278444b6e33444b724357482d4844687a322d37582d584d4e546f31516a4a455346774f72556e534b36754b4649646c32694f3244346d715a33747845744831566f63594a586237434b664532795a6e796676444f54313665752d5245753178776f6d636c706d4d634b5a6e50705858687462446b395a2d4554784b52456753745959457a5a50705945627a394b633539464372307a4e712d3678463975304f6c7973637553457976535f73317a47696c5a546b6b4354726774544f536a44474f6e776c6a6a654c3755326975574c4c50627a7057564d52332d543132745243786b52453645366d5965474b706565704b4b336958525451533868527a79717477445543375f356667436c58376a6c324336663834513d77313136322d6838363768747470733a2f2f6c68332e676f6f676c6575736572636f6e74656e742e636f6d2f666966652f414c73366a5f465a5f524c69766861347633325142346350534e5f6d68726d5049387271485f307a577641745631373758384d34547065747141464f4e5f56654e6a616b316e4d374f656b42634c6c79426b443873374f4a644c634d6a6a726b6c496f78786630775845755833767134467667714376556e586b69536e456430705946634e5536303966316b4276396236777a64326139757a65524b345451767951434b567367537057526c7a61616165614b42524c4653386d50474f64417179673152634d34612d6c544b777a7058796b515f4c516355487239496457656276323333535961762d5145774572655944795939314d68433672664365493967774e3863356e6e7257415f3433394730313168357350633967797136314859363274424f4e56506c414a43636632523245716c74514277316d49376e5a5658666c6666726d5a6775465653423276674e4d4a5351517667304367304f305443572d5f704865446f434a7757534c4e4e665f672d52763975464b5a7372696568753568336a4d6365647a4758746242764d574e6e2d76786f5952366f6f55514e766f416755575f704b44715645753630376c326b5049632d665252424a48686c76553551315170466267676a444e6c596c67615844626f3752595735386a774369345f6f6d6e575574415f4933554c6a7844336a4a5863414e776a5458616b68375534473838553449346346554b53776f6b5539462d743136394855357938466e4c445f6963625954397a503965704758614e43507a4e31527773437956346d32634a703069386c5f3443643235637a51464169364a45506e762d587a3756766665323176505742757362397365794d634e6e774b776a65544e7a4a4a61766e75625971685158596737776c5172323575516d596649696d5a5845523336304257585834545849514c50754539687449367753586e727a5a733734465a7a46674c3754414659574e6d39314447396c796e5f454169495a44366f5f4c415f735f6f39305956476c4f584650527337764a437a31643031767475304e6757356445303267323173547a6e6e4e6644784d455f465a565330643373656e34795f5f525948364b376679662d5476747a364d6d704439657146674c5f6b7066655856584d517577307a41385636374753436b4a6469597a65795739547449674558705a437368484c424d746d474e41547171534d3770686c503176665f4248736d63423179696a2d33586368336b765f33304239745569356573415369435152503272783738713269633174567a716b384a636d4f7257335a572d77716c71716c7554694a5742614b6b476c766b4c753967594b755662766e2d505f62387672346c4e37356955394d4c7362565a496a6d634445355a63413568797a32334e45364471355942382d56436a4669574c565a5169354a677275483266354c386373504b566f70572d382d55524c585637364e782d2d71726131525476632d4734316678754b496b6534764f6d76596f585a467531477752425a4e4a5f316e7536356178796d706b7758677370487a7149596e765443364f6e77536f4e6255366d3071764f4d66475555654e56595f6e743736586e55355f64506b6a592d316249374d4962706d463648744975397a74365344794f78594837644c5836675a75596a35577a75304e724476427163504e5f6e65616e4e445833624b6e77715f6a7837456f726845714d6d32327a787473735f4441304c307774684e614652497536505545582d4a4d3566456b364d774842644a5a466563473438746b6d6844316a50345150574a5466484d386d3545346e524548435234424a5170386156496948356e2d775f64476968474f37424a316c796c2d676355695738464e64517630437969545366396a485353455966706f47784b32456b6657325a6c3262744974354a45454b66446253796c563666596b7662415151584a58646142706f6d7147426b38452d5265594456484f757834476a63687461523731597a576d6864375a6a7a634e4a30647142495538522d6b4155716c48335657794f327259355a5252543662715751364e464c5547506e4e594d7a4c52367a58454e32696d3133456b6f6a556f46475832636e684638723057474c5946316d4d584251355564436e676a53627772316c626945636c75425133466c4366696d726674623968674471553338413854745f587562795a773378714a645f786e61586e796e6257714732513d77313136322d6838363768747470733a2f2f6c68332e676f6f676c6575736572636f6e74656e742e636f6d2f666966652f414c73366a5f47617a6f433136627358776473335a41687359566478746f3649625363354b4c6d585a50434655337643414f6b324e4534417a532d50466f716d6f4e7a6835435f584a587965564657572d4e736c683248673343366e413652704557466f6f76645572667745796b59494c725a76416152676d74596444584279476f7278524b5255504c5132786a4b357a65555a6539354156444961417a69494d43546549505934526e77514e3331334359646a5130793771547152514d5f333552454133626c39693263696d6e33327a776d75657a6547364c62686e6b575f7341394b383762796d353739443476374e3243747651564f5a4b6d61684177344a67455146796b516a4a7256374c4d682d494e6b55457264514276346d33506265384d687a41724b74635649514a614f6c4b6342374431746c77685159674b484949563861573077563263373970584c6232476e695564375158426d5352715f695645377941445f63596d382d72636436327a374d69686a6464735a5a776875544f35566e56385f32645a6f6c68337157785f644d31624d4348684f4954526e53344b59734244696c5350574f717a495847637a78637743324963686b385a53547277666c7245504b6432643544415268415f5534704736355f32764e6d6d5433737174387a575379584945496b34437a49554341753065526154623570507741744c646942534f416350687a72702d454c304c6a796a516b343554514b4d7153583073675963684f4e5843615f6a7071423333784756574c5f4f62306c717235656c6153397042312d3245494e6c6978712d4b2d36627a566c486b717955704c59544c4a4f6d37793147586c4f57517338654e756434327539756f5a72765a43484c4e336a6243637975546250746772384a355644787935416631517a535276755a39687972334d63717047715971625466556d7847504b6d34347872543055343378366b7a737243706a367a38537650625672414c5143757866653848716e6253654774483852554d38576a68746a726f304b5637454447473541622d634b464a4741426f6765315342376c514574465067675a62464e624b62375145345f6c52696c4a70754f52776d76555446786a3444667539446c6b6a564a615a59484c735344645351545a3465376b3863784f7336335038654d48686f494f4e456f3342475135427843564e5868344a33347a48594e36325643625343612d456267594653727150675258734641705f4c522d4f353976774e4b434d5f6f7270677170354c3338637078354a3864554e5455656b386444626872514c773970474655434f4777596558646c4c694d7661467a6b6b39794764574f6571657932587839793639593435426250686b2d576c367a316461505747426e68515762786b57375166437646516f4d4262537476684946485062677a6e744131544839793247594f56526a7a46674d41474b2d363761353675472d6175675339524f56335a4e324252474f6e39676b7770777848493036374354484276414334344d73367443636f6552507465517a544c796d7a564d4b44306a75397175546769313242787365534d4e324f53416d34613144565831583342714651364e4e2d4d5370506b62765a6d31762d4676744b7448344e794f3856766669364d617233646e70524e345144735a7a424b446874454c3846436b7062475a4a672d316350317645325134316661756e6d6a3177535a556443486b474c37716b4e696243454574595f4241656756764872627a5164326d5a557862496b5933504d4a765178564d53663766446a545766667939324935376a68676f37773174436e6466466f53414a47514c652d45305a687636577871636f475971664b524a67723039484d586e484642544a6a4463336c4a5761474432616c74544b70384336487a776f4f4f642d30516744527a77425f346c304b414a4b5f4e676a313733344232504f4462654c7a334f54345a613265634475706d7852744f5a3659437838566749676f4369722d315930786257383759353664364d5330774f76474f7270453857797747797055502d46715f704b506a6e666576745f73586769615a4c42757575567548475f3436675f70504138544b794451643338666e7750694172695f4b4f5a4d43344d4b436d4e47494444456a714f6b32455435594b6c6d704a3136614b63636e5166777936615a355567654c37736f6e5f72676c4f495759323952383d77313136322d6838363768747470733a2f2f6c68332e676f6f676c6575736572636f6e74656e742e636f6d2f666966652f414c73366a5f454d6a665f504d5951367169725f6e326e2d7156564934416b72794a775a6665506f4463467255314a6e454758685f426370744330306a724373366647753552317042563350766144557a353834735973565658545f54426b56644e746733325571764859736c4563547142637572683147317563324c367639464f77634c6f4e65655043754f4e4e3564354b3542473678516a304b4b50456d2d47756e7630554c316b455851714c466265574a4b5430387331414d2d39464558344e56365167667735794d4c645941616f6354766145355648495449756e7062474d734b53666c594271446979567564536255545f6d5465305a545a61616b4c75534c542d4c7a5f306a5742473238765a7a647759617167335867634156576756384e6e6c424271474374526e6d4730787151484f696f68334e6e6b4c58366f306e574735425f4361416168304362397933632d6553695f43737462426b755262724b334d394841346a616e4f686b754858595f58325766303976522d6e587076455776364b53534d42593374685166565251597a79546d3072357076462d2d7430745938326752684d36303658556471683949566b6a2d696d394d4636794f507a32616c78716d4130766a677747445f61654f3055664d77387050546a5a382d6e6f4132614d62464f585f315064334458442d6b4a3745776a694e666b386d646454784345616c6473383435386c73305a426d677531576470566d345149667a6f684d502d414c465043447763477733526b6137576178736b547a367a78377955523754702d50795249374a30324970686a6d5755775333636a6f534e485644655a52684977386a34426e3349767661346841793967765774754851706173523656714f645048725a72436c4641526f6d716c5864636555685652615a395771546f5f7667717052466d463578697a4e72576f65593448684577535450445974334e5732775a4634314158634a6172753074585a33387a324769596a664261447672445671394236444368763866714d4f6352373576685037494a6d63734b365861584a647963345833366f3669357a70716d69546d68715a4e3330777842557867374155443667596a4a326e4e6c73344b304d456f674f777a6b6e774c79796932423554354855576742675a77436f4574504f46756e517646686a7745353365732d52336a305653346b482d347a7a544652385264382d437a564c395f72506b4e4559696f5f4b536d626555786f6547395a6655756c57334e70375f41325f787977736b5a78663555434d5033346f3955326d2d363363366a5a70336f306f44314a5165366a636354305f5270352d4a676a694b36375a356b6c3636635a50554d6244745670706f6a4f30516658577271726838433469415265667a557a637249453769725a61794d6c3549413353777a7975434c4a43657170456b473075665172684741427337774f694c44496345636843365236704c374179522d654e475248676c394f384b764a635436583838483731554d5831496543387a42494539476544765357387857724b2d326b476e6343735555644f42525535334d5269563977514c466c444f6f3268435743384a3639636f725648695354534d4e412d4267614738417646585a4b7557636a39504c664b49304d5f6d50655939564d5463524f557042556c7251447573484e385f4179447a69353952614b324532516c673244314a37466d39665f5078374f507772756d5a437339676535316239664f776c5133645f51696e7661616c534d356e53674971666d4e4e6f506f4b4d51426735486d7057445a776538564a4e67314a7a366e683771705457685f7a4f4b304a686742767038677a4f47565f2d39416a4145556b4a376f4b4a2d4f4e5831716b63784a746a4e514345355a514d516769386735776143506a796f6a664752386f2d415474516a343751342d52707a433831414764464750584a516d585f5335354d454d66514f4d314f764a5f46544979694265737a73456d734463483864674c41796a38675a4978675474514571307a706e7753307145335a4b6d7437757663754f634b744b42304f486170725068484d75617a4532763965637a30343868327272532d646731413348566e426e7251714463647a4f6545777a6838314958785a2d795564414130546467556c644f794f2d53624b52505149575479746f6c37566e74476f2d3439474c5052616c5372375362553571773d77313136322d68383637",
  "immutableReferences": {},
  "source": "pragma solidity ^0.8.0;\r\n\r\ncontract StrayAnimals {\r\n    uint256 public petCount = 0;\r\n\r\n    struct Pet {\r\n        uint256 id;\r\n        string name;\r\n        string breed;\r\n        uint256 age;\r\n        string health;\r\n        string image;\r\n        address adopter;\r\n        bool isAdopted;\r\n    }\r\n\r\n    mapping(uint256 => Pet) public pets;\r\n\r\n    event PetAdded(\r\n        uint256 id,\r\n        string name,\r\n        string breed,\r\n        uint256 age,\r\n        string health,\r\n        string image,\r\n        address adopter,\r\n        bool isAdopted\r\n    );\r\n\r\n    event PetAdopted(\r\n        uint256 id,\r\n        address adopter,\r\n        bool isAdopted\r\n    );\r\n\r\n    constructor() {\r\n        addPet(\"Thungtong\", \"Chinchilla\", 4, \"Vaccinated\", \"https://lh3.googleusercontent.com/fife/ALs6j_GazoC16bsXwds3ZAhsYVdxto6IbSc5KLmXZPCFU3vCAOk2NE4AzS-PFoqmoNzh5C_XJXyeVFWW-Nslh2Hg3C6nA6RpEWFoovdUrfwEykYILrZvAaRgmtYdDXByGorxRKRUPLQ2xjK5zeUZe95AVDIaAziIMCTeIPY4RnwQN313CYdjQ0y7qTqRQM_35REA3bl9i2cimn32zwmuezeG6LbhnkW_sA9K87bym579D4v7N2CtvQVOZKmahAw4JgEQFykQjJrV7LMh-INkUErdQBv4m3Pbe8MhzArKtcVIQJaOlKcB7D1tlwhQYgKHIIV8aW0wV2c79pXLb2GniUd7QXBmSRq_iVE7yAD_cYm8-rcd62z7MihjddsZZwhuTO5VnV8_2dZolh3qWx_dM1bMCHhOITRnS4KYsBDilSPWOqzIXGczxcwC2Ichk8ZSTrwflrEPKd2d5DARhA_U4pG65_2vNmmT3sqt8zWSyXIEIk4CzIUCAu0eRaTb5pPwAtLdiBSOAcPhzrp-EL0LjyjQk45TQKMqSX0sgYchONXCa_jpqB33xGVWL_Ob0lqr5elaS9pB1-2EINlixq-K-6bzVlHkqyUpLYTLJOm7y1GXlOWQs8eNud42u9uoZrvZCHLN3jbCcyuTbPtgr8J5VDxy5Af1QzSRvuZ9hyr3McqpGqYqbTfUmxGPKm44xrT0U43x6kzsrCpj6z8SvPbVrALQCuxfe8HqnbSeGtH8RUM8Wjhtjro0KV7EDGG5Ab-cKFJGABoge1SB7lQEtFPggZbFNbKb7QE4_lRilJpuORwmvUTFxj4Dfu9DlkjVJaZYHLsSDdSQTZ4e7k8cxOs63P8eMHhoIONEo3BGQ5BxCVNXh4J34zHYN62VCbSCa-EbgYFSrqPgRXsFAp_LR-O59vwNKCM_orpgqp5L38cpx5J8dUNTUek8dDbhrQLw9pGFUCOGwYeXdlLiMvaFzkk9yGdWOeqey2Xx9y69Y45BbPhk-Wl6z1daPWGBnhQWbxkW7QfCvFQoMBbStvhIFHPbgzntA1TH9y2GYOVRjzFgMAGK-67a56uG-augS9ROV3ZN2BRGOn9gkwpwxHI067CTHBvAC44Ms6tCcoeRPteQzTLymzVMKD0ju9quTgi12BxseSMN2OSAm4a1DVX1X3BqFQ6NN-MSpPkbvZm1v-FvtKtH4NyO8Vvfi6Mar3dnpRN4QDsZzBKDhtEL8FCkpbGZJg-1cP1vE2Q41faunmj1wSZUdCHkGL7qkNibCEEtY_BAegVvHrbzQd2mZUxbIkY3PMJvQxVMSf7fDjTWffy92I57jhgo7w1tCndfFoSAJGQLe-E0Zhv6WxqcoGYqfKRJgr09HMXnHFBTJjDc3lJWaGD2altTKp8C6HzwoOOd-0QgDRzwB_4l0KAJK_Ngj1734B2PODbeLz3OT4Za2ecDupmxRtOZ6YCx8VgIgoCir-1Y0xbW87Y56d6MS0wOvGOrpE8WywGypUP-Fq_pKPjnfevt_sXgiaZLBuuuVuHG_46g_pPA8TKyDQd38fnwPiAri_KOZMC4MKCmNGIDDEjqOk2ET5YKlmpJ16aKccnQfwy6aZ5UgeL7son_rglOIWY29R8=w1162-h867\");\r\n        addPet(\"Som\", \"Shiba\", 5, \"Vaccinated\", \"https://lh3.googleusercontent.com/fife/ALs6j_GWG-OPb-j_5J3E0biEiHCVhJiN-MOrBR5nhRW4XOQ1nz1RQP2cP4El550yHiu84Z2B2nNuTHfoPbe-xobvoPAPpDZUGX2rlcommO157GoPt52iypOQlVnD7XNaarD0Yh8rf1g6eJkEPwsp1b05WRyKSTNoshH2hSHGe6Rkf9jQ963M8tlRnuc9r3jqrm2q0sQ7J72b_c_eEDriZtDXB2rtgQaLdjzAXjLYFnFEGAdfvF32upNn3DHVJDsrZy2PLZJwXT5KVS9ISQcprwk3DqJ3mwGlKa_YkincJEACyaJ6U_RKYM5K3QTrLjQGQZ-uMVPHxuhWtvtZeo4hcZ1qe2bJCrO1VIeB1pWatrMXMT90e7VbByhsAIlqazmgZwlzkYoTNzKOuHnc89uf_tDHMzq1lhkXWLGXk2euRVjJknlNnNZvHFH05Ja6iOEWsQFAv3uYpXS92SBrBbZtiocO7L6EqH50fYeNV4J2HDOlK34M_E7qNezAjvU9w7gUG7KYAwUwuwg_3wDlrhcijJwC8g1paUTfH1wHiXnNpmXHD5j2A9NnwmlS0yFvVMdHVRXTHGxY_H_mOR0oLcFSuIaT9hEhjrYI0cRrRYdBApIA9DaW_mNZnskFt1n0z8PzemHOtwno9sOrRjJ8p_FQ1tStfomB_gu9wUT1KQKnaCMlGEi4xeiflupduwCOE39MW5AiJJrK6rD0-dCiI9bxDaDKVBlM6to3bgZENG-6W6f5yFb-j6D6nZQKwPNyyk3mthblsyHCvkI0GaL56mFM54ch7hJeLHgujkJAmDHV2TcXaafJ31JKjerZwQ6p4MoyVYge50kLlOqi6SwdRMS-BkVFDHDWhR5yH7xpRGLBPapcOIGhu-S6vDUbwL4Nt-ZE8hwIZmaxBm3vH0IYXUsfxMwxqKFdbwq9gGl4oz_nufHB_UdfOfOyUznjObluM8yM_QoY73kJYzr2Pab9VEnEsb7WQ6Lldhw8Cu4YMrnxweelzzB9hm-GRbPkcg92HTsD3GR0i3Qehmby5Rx6Uw-gKEXv99Ue7vpUxX2fTkAKaEye6fwItgYzkWQH0RgpgLyjE9xdmsSvUp1KpUlGrWRKKvHyY00MAU8JuV1GEi3Lc4fd80pE_q0AmiO6J5uxbRiIxd8_ZAq-O0iJ_9BTMfTh5IdnWZxHgP208Bywk6t0TxvKX-Mjm-1qaByb9EINVN1ybqD80XFI011XSnso8Urr-EtpFNFObFaEkpXmHl4a4xHb0s9AFM7VqOVtMWVUGaFMBoifuy8OTzTN74xSrTKThXxprdCGVcbxrNh7EotN3tkhx6nOtlBJGGl0-8Y_gWHd1tfjRxDKn3DKrCWH-HDhz2-7X-XMNTo1QjJESFwOrUnSK6uKFIdl2iO2D4mqZ3txEtH1VocYJXb7CKfE2yZnyfvDOT16eu-REu1xwomclpmMcKZnPpXXhtbDk9Z-ETxKREgStYYEzZPpYEbz9Kc59FCr0zNq-6xF9u0OlyscuSEyvS_s1zGilZTkkCTrgtTOSjDGOnwljjeL7U2iuWLLPbzpWVMR3-T12tRCxkRE6E6mYeGKpeepKK3iXRTQS8hRzyqtwDUC7_5fgClX7jl2C6f84Q=w1162-h867\");\r\n        addPet(\"Rocky\", \"Moggy\", 2, \"Vaccinated\", \"https://lh3.googleusercontent.com/fife/ALs6j_FZ_RLivha4v32QB4cPSN_mhrmPI8rqH_0zWvAtV177X8M4TpetqAFON_VeNjak1nM7OekBcLlyBkD8s7OJdLcMjjrklIoxxf0wXEuX3vq4FvgqCvUnXkiSnEd0pYFcNU609f1kBv9b6wzd2a9uzeRK4TQvyQCKVsgSpWRlzaaaeaKBRLFS8mPGOdAqyg1RcM4a-lTKwzpXykQ_LQcUHr9IdWebv233SYav-QEwEreYDyY91MhC6rfCeI9gwN8c5nnrWA_439G011h5sPc9gyq61HY62tBONVPlAJCcf2R2EqltQBw1mI7nZVXflffrmZguFVSB2vgNMJSQQvg0Cg0O0TCW-_pHeDoCJwWSLNNf_g-Rv9uFKZsriehu5h3jMcedzGXtbBvMWNn-vxoYR6ooUQNvoAgUW_pKDqVEu607l2kPIc-fRRBJHhlvU5Q1QpFbggjDNlYlgaXDbo7RYW58jwCi4_omnWUtA_I3ULjxD3jJXcANwjTXakh7U4G88U4I4cFUKSwokU9F-t169HU5y8FnLD_icbYT9zP9epGXaNCPzN1RwsCyV4m2cJp0i8l_4Cd25czQFAi6JEPnv-Xz7Vvfe21vPWBusb9seyMcNnwKwjeTNzJJavnubYqhQXYg7wlQr25uQmYfIimZXER360BWXX4TXIQLPuE9htI6wSXnrzZs74FZzFgL7TAFYWNm91DG9lyn_EAiIZD6o_LA_s_o90YVGlOXFPRs7vJCz1d01vtu0NgW5dE02g21sTznnNfDxME_FZVS0d3sen4y__RYH6K7fyf-Tvtz6MmpD9eqFgL_kpfeXVXMQuw0zA8V67GSCkJdiYzeyW9TtIgEXpZCshHLBMtmGNATqqSM7phlP1vf_BHsmcB1yij-3Xch3kv_30B9tUi5esASiCQRP2rx78q2ic1tVzqk8JcmOrW3ZW-wqlqqluTiJWBaKkGlvkLu9gYKuVbvn-P_b8vr4lN75iU9MLsbVZIjmcDE5ZcA5hyz23NE6Dq5YB8-VCjFiWLVZQi5JgruH2f5L8csPKVopW-8-URLXV76Nx--qra1RTvc-G41fxuKIke4vOmvYoXZFu1GwRBZNJ_1nu65axympkwXgspHzqIYnvTC6OnwSoNbU6m0qvOMfGUUeNVY_nt76XnU5_dPkjY-1bI7MIbpmF6HtIu9zt6SDyOxYH7dLX6gZuYj5Wzu0NrDvBqcPN_neanNDX3bKnwq_jx7EorhEqMm22zxtss_DA0L0wthNaFRIu6PUEX-JM5fEk6MwHBdJZFecG48tkmhD1jP4QPWJTfHM8m5E4nREHCR4BJQp8aVIiH5n-w_dGihGO7BJ1lyl-gcUiW8FNdQv0CyiTSf9jHSSEYfpoGxK2EkfW2Zl2btIt5JEEKfDbSylV6fYkvbAQQXJXdaBpomqGBk8E-ReYDVHOux4GjchtaR71YzWmhd7ZjzcNJ0dqBIU8R-kAUqlH3VWyO2rY5ZRRT6bqWQ6NFLUGPnNYMzLR6zXEN2im13EkojUoFGX2cnhF8r0WGLYF1mMXBQ5UdCngjSbwr1lbiEcluBQ3FlCfimrftb9hgDqU38A8Tt_XubyZw3xqJd_xnaXnynbWqG2Q=w1162-h867\");\r\n        addPet(\"Moji\", \"Corgi\", 5, \"Vaccinated\", \"https://lh3.googleusercontent.com/fife/ALs6j_EMjf_PMYQ6qir_n2n-qVVI4AkryJwZfePoDcFrU1JnEGXh_BcptC00jrCs6fGu5R1pBV3PvaDUz584sYsVVXT_TBkVdNtg32UqvHYslEcTqBcurh1G1uc2L6v9FOwcLoNeePCuONN5d5K5BG6xQj0KKPEm-Gunv0UL1kEXQqLFbeWJKT08s1AM-9FEX4NV6Qgfw5yMLdYAaocTvaE5VHITIunpbGMsKSflYBqDiyVudSbUT_mTe0ZTZaakLuSLT-Lz_0jWBG28vZzdwYaqg3XgcAVWgV8NnlBBqGCtRnmG0xqQHOioh3NnkLX6o0nWG5B_CaAah0Cb9y3c-eSi_CstbBkuRbrK3M9HA4janOhkuHXY_X2Wf09vR-nXpvEWv6KSSMBY3thQfVRQYzyTm0r5pvF--t0tY82gRhM606XUdqh9IVkj-im9MF6yOPz2alxqmA0vjgwGD_aeO0UfMw8pPTjZ8-noA2aMbFOX_1Pd3DXD-kJ7EwjiNfk8mddTxCEalds8458ls0ZBmgu1WdpVm4QIfzohMP-ALFPCDwcGw3Rka7WaxskTz6zx7yUR7Tp-PyRI7J02IphjmWUwS3cjoSNHVDeZRhIw8j4Bn3Ivva4hAy9gvWtuHQpasR6VqOdPHrZrClFARomqlXdceUhVRaZ9WqTo_vgqpRFmF5xizNrWoeY4HhEwSTPDYt3NW2wZF41AXcJaru0tXZ38z2GiYjfBaDvrDVq9B6DChv8fqMOcR75vhP7IJmcsK6XaXJdyc4X36o6i5zpqmiTmhqZN30wxBUxg7AUD6gYjJ2nNls4K0MEogOwzknwLyyi2B5T5HUWgBgZwCoEtPOFunQvFhjwE53es-R3j0VS4kH-4zzTFR8Rd8-CzVL9_rPkNEYio_KSmbeUxoeG9ZfUulW3Np7_A2_xywskZxf5UCMP34o9U2m-63c6jZp3o0oD1JQe6jccT0_Rp5-JgjiK67Z5kl66cZPUMbDtVppojO0QfXWrqrh8C4iARefzUzcrIE7irZayMl5IA3SwzyuCLJCeqpEkG0ufQrhGABs7wOiLDIcEchC6R6pL7AyR-eNGRHgl9O8KvJcT6X88H71UMX1IeC8zBIE9GeDvSW8xWrK-2kGncCsUUdOBRU53MRiV9wQLFlDOo2hCWC8J69corVHiSTSMNA-BgaG8AvFXZKuWcj9PLfKI0M_mPeY9VMTcROUpBUlrQDusHN8_AyDzi59RaK2E2Qlg2D1J7Fm9f_Px7OPwrumZCs9ge51b9fOwlQ3d_QinvaalSM5nSgIqfmNNoPoKMQBg5HmpWDZwe8VJNg1Jz6nh7qpTWh_zOK0JhgBvp8gzOGV_-9AjAEUkJ7oKJ-ONX1qkcxJtjNQCE5ZQMQgi8g5waCPjyojfGR8o-ATtQj47Q4-RpzC81AGdFGPXJQmX_S55MEMfQOM1OvJ_FTIyiBeszsEmsDcH8dgLAyj8gZIxgTtQEq0zpnwS0qE3ZKmt7uvcuOcKtKB0OHaprPhHMuazE2v9ecz048h2rrS-dg1A3HVnBnrQqDcdzOeEwzh81IXxZ-yUdAA0TdgUldOyO-SbKRPQIWTytol7VntGo-49GLPRalSr7SbU5qw=w1162-h867\");\r\n    }\r\n\r\n    function addPet(\r\n        string memory _name,\r\n        string memory _breed,\r\n        uint256 _age,\r\n        string memory _health,\r\n        string memory _image\r\n    ) public {\r\n        petCount ++;\r\n        pets[petCount] = Pet(petCount, _name, _breed, _age, _health, _image, msg.sender, false);\r\n        require(bytes(_name).length > 0, \"Pet name is required.\");\r\n        require(bytes(_breed).length > 0, \"Pet breed is required.\");\r\n        emit PetAdded(petCount, _name, _breed, _age, _health, _image, msg.sender, false);\r\n    }\r\n\r\n    function adoptPet(uint256 _petId) public {\r\n        Pet storage pet = pets[_petId];\r\n        require(msg.sender != pet.adopter, \"You can't adopt your own pet.\");\r\n        require(pet.isAdopted == false, \"Pet already adopted.\");\r\n        pet.adopter = msg.sender;\r\n        pet.isAdopted = true;\r\n        emit PetAdopted(_petId, pet.adopter, pet.isAdopted);\r\n    }\r\n\r\n    function getpetCount() public view returns (uint256 _petCount) {\r\n        return petCount;\r\n    }\r\n\r\n    function getPetInfo(uint256 _petId) public view returns (string memory _name, string memory _breed, uint256 _age, string memory _health, string memory _image, address _adopter, bool _isAdopted) {\r\n        Pet storage pet = pets[_petId];\r\n        return (pet.name, pet.breed, pet.age, pet.health, pet.image, pet.adopter, pet.isAdopted);\r\n    }\r\n}\r\n",
  "sourcePath": "C:\\Users\\User\\Downloads\\434_project\\page\\contracts\\StrayAnimals.sol",
  "compiler": {
    "name": "solc",
    "version": "0.8.0+commit.c7dfd78e.Emscripten.clang"
  },
  "schemaVersion": "3.4.16",
  "updatedAt": "2024-11-28T14:57:56.794Z",
  "networkType": "ethereum",
  "devdoc": {
    "kind": "dev",
    "methods": {},
    "version": 1
  },
  "userdoc": {
    "kind": "user",
    "methods": {},
    "version": 1
  }
}