{
  "contractName": "StrayAnimals",
  "abi": [
    {
      "inputs": [],
      "stateMutability": "nonpayable",
      "type": "constructor"
    },
    {
      "anonymous": false,
      "inputs": [
        {
          "indexed": false,
          "internalType": "uint256",
          "name": "id",
          "type": "uint256"
        },
        {
          "indexed": false,
          "internalType": "string",
          "name": "name",
          "type": "string"
        },
        {
          "indexed": false,
          "internalType": "string",
          "name": "breed",
          "type": "string"
        },
        {
          "indexed": false,
          "internalType": "uint256",
          "name": "age",
          "type": "uint256"
        },
        {
          "indexed": false,
          "internalType": "string",
          "name": "gender",
          "type": "string"
        },
        {
          "indexed": false,
          "internalType": "string",
          "name": "health",
          "type": "string"
        },
        {
          "indexed": false,
          "internalType": "string",
          "name": "image",
          "type": "string"
        },
        {
          "indexed": false,
          "internalType": "address",
          "name": "adopter",
          "type": "address"
        },
        {
          "indexed": false,
          "internalType": "bool",
          "name": "isAdopted",
          "type": "bool"
        }
      ],
      "name": "PetAdded",
      "type": "event"
    },
    {
      "anonymous": false,
      "inputs": [
        {
          "indexed": false,
          "internalType": "uint256",
          "name": "id",
          "type": "uint256"
        },
        {
          "indexed": false,
          "internalType": "address",
          "name": "adopter",
          "type": "address"
        },
        {
          "indexed": false,
          "internalType": "bool",
          "name": "isAdopted",
          "type": "bool"
        }
      ],
      "name": "PetAdopted",
      "type": "event"
    },
    {
      "inputs": [],
      "name": "petCount",
      "outputs": [
        {
          "internalType": "uint256",
          "name": "",
          "type": "uint256"
        }
      ],
      "stateMutability": "view",
      "type": "function",
      "constant": true
    },
    {
      "inputs": [
        {
          "internalType": "uint256",
          "name": "",
          "type": "uint256"
        }
      ],
      "name": "pets",
      "outputs": [
        {
          "internalType": "uint256",
          "name": "id",
          "type": "uint256"
        },
        {
          "internalType": "string",
          "name": "name",
          "type": "string"
        },
        {
          "internalType": "string",
          "name": "breed",
          "type": "string"
        },
        {
          "internalType": "uint256",
          "name": "age",
          "type": "uint256"
        },
        {
          "internalType": "string",
          "name": "gender",
          "type": "string"
        },
        {
          "internalType": "string",
          "name": "health",
          "type": "string"
        },
        {
          "internalType": "string",
          "name": "image",
          "type": "string"
        },
        {
          "internalType": "address",
          "name": "adopter",
          "type": "address"
        },
        {
          "internalType": "bool",
          "name": "isAdopted",
          "type": "bool"
        }
      ],
      "stateMutability": "view",
      "type": "function",
      "constant": true
    },
    {
      "inputs": [
        {
          "internalType": "string",
          "name": "_name",
          "type": "string"
        },
        {
          "internalType": "string",
          "name": "_breed",
          "type": "string"
        },
        {
          "internalType": "uint256",
          "name": "_age",
          "type": "uint256"
        },
        {
          "internalType": "string",
          "name": "_gender",
          "type": "string"
        },
        {
          "internalType": "string",
          "name": "_health",
          "type": "string"
        },
        {
          "internalType": "string",
          "name": "_image",
          "type": "string"
        }
      ],
      "name": "addPet",
      "outputs": [],
      "stateMutability": "nonpayable",
      "type": "function"
    },
    {
      "inputs": [
        {
          "internalType": "uint256",
          "name": "_petId",
          "type": "uint256"
        }
      ],
      "name": "adoptPet",
      "outputs": [],
      "stateMutability": "nonpayable",
      "type": "function"
    },
    {
      "inputs": [],
      "name": "getpetCount",
      "outputs": [
        {
          "internalType": "uint256",
          "name": "_petCount",
          "type": "uint256"
        }
      ],
      "stateMutability": "view",
      "type": "function",
      "constant": true
    },
    {
      "inputs": [
        {
          "internalType": "uint256",
          "name": "_petId",
          "type": "uint256"
        }
      ],
      "name": "getPetInfo",
      "outputs": [
        {
          "internalType": "string",
          "name": "_name",
          "type": "string"
        },
        {
          "internalType": "string",
          "name": "_breed",
          "type": "string"
        },
        {
          "internalType": "uint256",
          "name": "_age",
          "type": "uint256"
        },
        {
          "internalType": "string",
          "name": "_gender",
          "type": "string"
        },
        {
          "internalType": "string",
          "name": "_health",
          "type": "string"
        },
        {
          "internalType": "string",
          "name": "_image",
          "type": "string"
        },
        {
          "internalType": "address",
          "name": "_adopter",
          "type": "address"
        },
        {
          "internalType": "bool",
          "name": "_isAdopted",
          "type": "bool"
        }
      ],
      "stateMutability": "view",
      "type": "function",
      "constant": true
    }
  ],
  "bytecode": "0x6080604052600080553480156200001557600080fd5b50620001266040518060400160405280600981526020017f5468756e67746f6e6700000000000000000000000000000000000000000000008152506040518060400160405280600a81526020017f4368696e6368696c6c610000000000000000000000000000000000000000000081525060046040518060400160405280600481526020017f4d616c65000000000000000000000000000000000000000000000000000000008152506040518060400160405280600a81526020017f56616363696e6174656400000000000000000000000000000000000000000000815250604051806106c00160405280610689815260200162002df261068991396200059e640100000000026401000000009004565b620002366040518060400160405280600381526020017f536f6d00000000000000000000000000000000000000000000000000000000008152506040518060400160405280600581526020017f536869626100000000000000000000000000000000000000000000000000000081525060056040518060400160405280600681526020017f46656d616c6500000000000000000000000000000000000000000000000000008152506040518060400160405280600a81526020017f56616363696e6174656400000000000000000000000000000000000000000000815250604051806106c0016040528061068c8152602001620020da61068c91396200059e640100000000026401000000009004565b620003466040518060400160405280600581526020017f526f636b790000000000000000000000000000000000000000000000000000008152506040518060400160405280600581526020017f4d6f67677900000000000000000000000000000000000000000000000000000081525060026040518060400160405280600481526020017f4d616c65000000000000000000000000000000000000000000000000000000008152506040518060400160405280600a81526020017f56616363696e6174656400000000000000000000000000000000000000000000815250604051806106c0016040528061068c81526020016200276661068c91396200059e640100000000026401000000009004565b6200046f6040518060400160405280600481526020017f4d6f6a69000000000000000000000000000000000000000000000000000000008152506040518060400160405280600581526020017f436f72676900000000000000000000000000000000000000000000000000000081525060056040518060400160405280600481526020017f4d616c65000000000000000000000000000000000000000000000000000000008152506040518060400160405280600a81526020017f56616363696e61746564000000000000000000000000000000000000000000008152506040518060400160405280601681526020017f68747470733a2f2f6269742e6c792f3342326e66466b000000000000000000008152506200059e640100000000026401000000009004565b620005986040518060400160405280601481526020017f54616e6a697261204c756379205468612d7261650000000000000000000000008152506040518060400160405280600681526020017f42616e74616d000000000000000000000000000000000000000000000000000081525060026040518060400160405280600681526020017f46656d616c6500000000000000000000000000000000000000000000000000008152506040518060400160405280600a81526020017f56616363696e61746564000000000000000000000000000000000000000000008152506040518060400160405280601681526020017f68747470733a2f2f6269742e6c792f334f7864323732000000000000000000008152506200059e640100000000026401000000009004565b62000c5f565b600080815480929190620005b29062000ba2565b919050555060405180610120016040528060005481526020018781526020018681526020018581526020018481526020018381526020018281526020013373ffffffffffffffffffffffffffffffffffffffff1681526020016000151581525060016000805481526020019081526020016000206000820151816000015560208201518160010190805190602001906200064e92919062000822565b5060408201518160020190805190602001906200066d92919062000822565b506060820151816003015560808201518160040190805190602001906200069692919062000822565b5060a0820151816005019080519060200190620006b592919062000822565b5060c0820151816006019080519060200190620006d492919062000822565b5060e08201518160070160006101000a81548173ffffffffffffffffffffffffffffffffffffffff021916908373ffffffffffffffffffffffffffffffffffffffff1602179055506101008201518160070160146101000a81548160ff021916908315150217905550905050600086511162000787576040517f08c379a00000000000000000000000000000000000000000000000000000000081526004016200077e90620009ca565b60405180910390fd5b6000855111620007ce576040517f08c379a0000000000000000000000000000000000000000000000000000000008152600401620007c590620009ec565b60405180910390fd5b7fdf5c6f89cf206a6c463af9260ef298e6cb088c153479894a865b3874ffb244f9600054878787878787336000604051620008129998979695949392919062000a0e565b60405180910390a1505050505050565b828054620008309062000b6c565b90600052602060002090601f016020900481019282620008545760008555620008a0565b82601f106200086f57805160ff1916838001178555620008a0565b82800160010185558215620008a0579182015b828111156200089f57825182559160200191906001019062000882565b5b509050620008af9190620008b3565b5090565b5b80821115620008ce576000816000905550600101620008b4565b5090565b620008dd8162000aec565b82525050565b620008ee8162000b00565b82525050565b6000620009018262000ad0565b6200090d818562000adb565b93506200091f81856020860162000b36565b6200092a8162000c4e565b840191505092915050565b60006200094460158362000adb565b91507f506574206e616d652069732072657175697265642e00000000000000000000006000830152602082019050919050565b60006200098660168362000adb565b91507f5065742062726565642069732072657175697265642e000000000000000000006000830152602082019050919050565b620009c48162000b2c565b82525050565b60006020820190508181036000830152620009e58162000935565b9050919050565b6000602082019050818103600083015262000a078162000977565b9050919050565b60006101208201905062000a26600083018c620009b9565b818103602083015262000a3a818b620008f4565b9050818103604083015262000a50818a620008f4565b905062000a616060830189620009b9565b818103608083015262000a758188620008f4565b905081810360a083015262000a8b8187620008f4565b905081810360c083015262000aa18186620008f4565b905062000ab260e0830185620008d2565b62000ac2610100830184620008e3565b9a9950505050505050505050565b600081519050919050565b600082825260208201905092915050565b600062000af98262000b0c565b9050919050565b60008115159050919050565b600073ffffffffffffffffffffffffffffffffffffffff82169050919050565b6000819050919050565b60005b8381101562000b5657808201518184015260208101905062000b39565b8381111562000b66576000848401525b50505050565b6000600282049050600182168062000b8557607f821691505b6020821081141562000b9c5762000b9b62000c1f565b5b50919050565b600062000baf8262000b2c565b91507fffffffffffffffffffffffffffffffffffffffffffffffffffffffffffffffff82141562000be55762000be462000bf0565b5b600182019050919050565b7f4e487b7100000000000000000000000000000000000000000000000000000000600052601160045260246000fd5b7f4e487b7100000000000000000000000000000000000000000000000000000000600052602260045260246000fd5b6000601f19601f8301169050919050565b61146b8062000c6f6000396000f3fe608060405234801561001057600080fd5b506004361061007f576000357c010000000000000000000000000000000000000000000000000000000090048063031a59081461008457806319b81577146100a057806327074bf8146100bc57806369c3f316146100da578063cd619f5814610111578063cfb869bf1461012f575b600080fd5b61009e60048036038101906100999190610d4b565b610167565b005b6100ba60048036038101906100b59190610e4c565b6103d7565b005b6100c46105ad565b6040516100d191906110fc565b60405180910390f35b6100f460048036038101906100ef9190610e4c565b6105b6565b604051610108989796959493929190610fdb565b60405180910390f35b610119610902565b60405161012691906110fc565b60405180910390f35b61014960048036038101906101449190610e4c565b610908565b60405161015e9998979695949392919061114e565b60405180910390f35b60008081548092919061017990611337565b919050555060405180610120016040528060005481526020018781526020018681526020018581526020018481526020018381526020018281526020013373ffffffffffffffffffffffffffffffffffffffff168152602001600015158152506001600080548152602001908152602001600020600082015181600001556020820151816001019080519060200190610213929190610c2b565b506040820151816002019080519060200190610230929190610c2b565b50606082015181600301556080820151816004019080519060200190610257929190610c2b565b5060a0820151816005019080519060200190610274929190610c2b565b5060c0820151816006019080519060200190610291929190610c2b565b5060e08201518160070160006101000a81548173ffffffffffffffffffffffffffffffffffffffff021916908373ffffffffffffffffffffffffffffffffffffffff1602179055506101008201518160070160146101000a81548160ff0219169083151502179055509050506000865111610341576040517f08c379a00000000000000000000000000000000000000000000000000000000081526004016103389061109c565b60405180910390fd5b6000855111610385576040517f08c379a000000000000000000000000000000000000000000000000000000000815260040161037c906110bc565b60405180910390fd5b7fdf5c6f89cf206a6c463af9260ef298e6cb088c153479894a865b3874ffb244f96000548787878787873360006040516103c79998979695949392919061114e565b60405180910390a1505050505050565b60006001600083815260200190815260200160002090508060070160009054906101000a900473ffffffffffffffffffffffffffffffffffffffff1673ffffffffffffffffffffffffffffffffffffffff163373ffffffffffffffffffffffffffffffffffffffff161415610481576040517f08c379a00000000000000000000000000000000000000000000000000000000081526004016104789061107c565b60405180910390fd5b600015158160070160149054906101000a900460ff161515146104d9576040517f08c379a00000000000000000000000000000000000000000000000000000000081526004016104d0906110dc565b60405180910390fd5b338160070160006101000a81548173ffffffffffffffffffffffffffffffffffffffff021916908373ffffffffffffffffffffffffffffffffffffffff16021790555060018160070160146101000a81548160ff0219169083151502179055507f4e87641277b3c24729c802cf2d3d85841a2df4c842386181e1baf9550ccc07bc828260070160009054906101000a900473ffffffffffffffffffffffffffffffffffffffff168360070160149054906101000a900460ff166040516105a193929190611117565b60405180910390a15050565b60008054905090565b606080600060608060606000806000600160008b81526020019081526020016000209050806001018160020182600301548360040184600501856006018660070160009054906101000a900473ffffffffffffffffffffffffffffffffffffffff168760070160149054906101000a900460ff1687805461063690611305565b80601f016020809104026020016040519081016040528092919081815260200182805461066290611305565b80156106af5780601f10610684576101008083540402835291602001916106af565b820191906000526020600020905b81548152906001019060200180831161069257829003601f168201915b505050505097508680546106c290611305565b80601f01602080910402602001604051908101604052809291908181526020018280546106ee90611305565b801561073b5780601f106107105761010080835404028352916020019161073b565b820191906000526020600020905b81548152906001019060200180831161071e57829003601f168201915b5050505050965084805461074e90611305565b80601f016020809104026020016040519081016040528092919081815260200182805461077a90611305565b80156107c75780601f1061079c576101008083540402835291602001916107c7565b820191906000526020600020905b8154815290600101906020018083116107aa57829003601f168201915b505050505094508380546107da90611305565b80601f016020809104026020016040519081016040528092919081815260200182805461080690611305565b80156108535780601f1061082857610100808354040283529160200191610853565b820191906000526020600020905b81548152906001019060200180831161083657829003601f168201915b5050505050935082805461086690611305565b80601f016020809104026020016040519081016040528092919081815260200182805461089290611305565b80156108df5780601f106108b4576101008083540402835291602001916108df565b820191906000526020600020905b8154815290600101906020018083116108c257829003601f168201915b505050505092509850985098509850985098509850985050919395975091939597565b60005481565b600160205280600052604060002060009150905080600001549080600101805461093190611305565b80601f016020809104026020016040519081016040528092919081815260200182805461095d90611305565b80156109aa5780601f1061097f576101008083540402835291602001916109aa565b820191906000526020600020905b81548152906001019060200180831161098d57829003601f168201915b5050505050908060020180546109bf90611305565b80601f01602080910402602001604051908101604052809291908181526020018280546109eb90611305565b8015610a385780601f10610a0d57610100808354040283529160200191610a38565b820191906000526020600020905b815481529060010190602001808311610a1b57829003601f168201915b505050505090806003015490806004018054610a5390611305565b80601f0160208091040260200160405190810160405280929190818152602001828054610a7f90611305565b8015610acc5780601f10610aa157610100808354040283529160200191610acc565b820191906000526020600020905b815481529060010190602001808311610aaf57829003601f168201915b505050505090806005018054610ae190611305565b80601f0160208091040260200160405190810160405280929190818152602001828054610b0d90611305565b8015610b5a5780601f10610b2f57610100808354040283529160200191610b5a565b820191906000526020600020905b815481529060010190602001808311610b3d57829003601f168201915b505050505090806006018054610b6f90611305565b80601f0160208091040260200160405190810160405280929190818152602001828054610b9b90611305565b8015610be85780601f10610bbd57610100808354040283529160200191610be8565b820191906000526020600020905b815481529060010190602001808311610bcb57829003601f168201915b5050505050908060070160009054906101000a900473ffffffffffffffffffffffffffffffffffffffff16908060070160149054906101000a900460ff16905089565b828054610c3790611305565b90600052602060002090601f016020900481019282610c595760008555610ca0565b82601f10610c7257805160ff1916838001178555610ca0565b82800160010185558215610ca0579182015b82811115610c9f578251825591602001919060010190610c84565b5b509050610cad9190610cb1565b5090565b5b80821115610cca576000816000905550600101610cb2565b5090565b6000610ce1610cdc8461122f565b6111fe565b905082815260208101848484011115610cf957600080fd5b610d048482856112c3565b509392505050565b600082601f830112610d1d57600080fd5b8135610d2d848260208601610cce565b91505092915050565b600081359050610d458161141e565b92915050565b60008060008060008060c08789031215610d6457600080fd5b600087013567ffffffffffffffff811115610d7e57600080fd5b610d8a89828a01610d0c565b965050602087013567ffffffffffffffff811115610da757600080fd5b610db389828a01610d0c565b9550506040610dc489828a01610d36565b945050606087013567ffffffffffffffff811115610de157600080fd5b610ded89828a01610d0c565b935050608087013567ffffffffffffffff811115610e0a57600080fd5b610e1689828a01610d0c565b92505060a087013567ffffffffffffffff811115610e3357600080fd5b610e3f89828a01610d0c565b9150509295509295509295565b600060208284031215610e5e57600080fd5b6000610e6c84828501610d36565b91505092915050565b610e7e8161127b565b82525050565b610e8d8161128d565b82525050565b6000610e9e8261125f565b610ea8818561126a565b9350610eb88185602086016112d2565b610ec18161140d565b840191505092915050565b6000610ed9601d8361126a565b91507f596f752063616e27742061646f707420796f7572206f776e207065742e0000006000830152602082019050919050565b6000610f1960158361126a565b91507f506574206e616d652069732072657175697265642e00000000000000000000006000830152602082019050919050565b6000610f5960168361126a565b91507f5065742062726565642069732072657175697265642e000000000000000000006000830152602082019050919050565b6000610f9960148361126a565b91507f50657420616c72656164792061646f707465642e0000000000000000000000006000830152602082019050919050565b610fd5816112b9565b82525050565b6000610100820190508181036000830152610ff6818b610e93565b9050818103602083015261100a818a610e93565b90506110196040830189610fcc565b818103606083015261102b8188610e93565b9050818103608083015261103f8187610e93565b905081810360a08301526110538186610e93565b905061106260c0830185610e75565b61106f60e0830184610e84565b9998505050505050505050565b6000602082019050818103600083015261109581610ecc565b9050919050565b600060208201905081810360008301526110b581610f0c565b9050919050565b600060208201905081810360008301526110d581610f4c565b9050919050565b600060208201905081810360008301526110f581610f8c565b9050919050565b60006020820190506111116000830184610fcc565b92915050565b600060608201905061112c6000830186610fcc565b6111396020830185610e75565b6111466040830184610e84565b949350505050565b600061012082019050611164600083018c610fcc565b8181036020830152611176818b610e93565b9050818103604083015261118a818a610e93565b90506111996060830189610fcc565b81810360808301526111ab8188610e93565b905081810360a08301526111bf8187610e93565b905081810360c08301526111d38186610e93565b90506111e260e0830185610e75565b6111f0610100830184610e84565b9a9950505050505050505050565b6000604051905081810181811067ffffffffffffffff82111715611225576112246113de565b5b8060405250919050565b600067ffffffffffffffff82111561124a576112496113de565b5b601f19601f8301169050602081019050919050565b600081519050919050565b600082825260208201905092915050565b600061128682611299565b9050919050565b60008115159050919050565b600073ffffffffffffffffffffffffffffffffffffffff82169050919050565b6000819050919050565b82818337600083830152505050565b60005b838110156112f05780820151818401526020810190506112d5565b838111156112ff576000848401525b50505050565b6000600282049050600182168061131d57607f821691505b60208210811415611331576113306113af565b5b50919050565b6000611342826112b9565b91507fffffffffffffffffffffffffffffffffffffffffffffffffffffffffffffffff82141561137557611374611380565b5b600182019050919050565b7f4e487b7100000000000000000000000000000000000000000000000000000000600052601160045260246000fd5b7f4e487b7100000000000000000000000000000000000000000000000000000000600052602260045260246000fd5b7f4e487b7100000000000000000000000000000000000000000000000000000000600052604160045260246000fd5b6000601f19601f8301169050919050565b611427816112b9565b811461143257600080fd5b5056fea264697066735822122019e29790f07294686daab7bf152917260f8f315299cc97ef22c482b0a3b28d8564736f6c6343000800003368747470733a2f2f6c68332e676f6f676c6575736572636f6e74656e742e636f6d2f666966652f414c73366a5f4757472d4f50622d6a5f354a33453062694569484356684a694e2d4d4f724252356e68525734584f51316e7a3152515032635034456c3535307948697538345a3242326e4e755448666f5062652d786f62766f50415070445a55475832726c636f6d6d4f313537476f507435326979704f516c566e4437584e61617244305968387266316736654a6b4550777370316230355752794b53544e6f73684832685348476536526b66396a513936334d38746c526e75633972336a71726d3271307351374a3732625f635f65454472695a744458423272746751614c646a7a41586a4c59466e4645474164667646333275704e6e334448564a4473725a7932504c5a4a775854354b565339495351637072776b3344714a336d77476c4b615f596b696e634a45414379614a36555f524b594d354b335154724c6a5147515a2d754d565048787568577476745a656f3468635a31716532624a43724f31564965423170576174724d584d543930653756624279687341496c71617a6d675a776c7a6b596f544e7a4b4f75486e63383975665f7444484d7a71316c686b58574c47586b32657552566a4a6b6e6c4e6e4e5a7648464830354a6136694f45577351464176337559705853393253427242625a74696f634f374c3645714835306659654e56344a3248444f6c4b33344d5f4537714e657a416a7655397737675547374b59417755777577675f3377446c726863696a4a774338673170615554664831774869586e4e706d584844356a3241394e6e776d6c5330794676564d644856525854484778595f485f6d4f52306f4c63465375496154396845686a725949306352725259644241704941394461575f6d4e5a6e736b4674316e307a38507a656d484f74776e6f39734f72526a4a38705f465131745374666f6d425f677539775554314b514b6e61434d6c47456934786569666c7570647577434f4533394d573541694a4a724b367244302d644369493962784461444b56426c4d36746f3362675a454e472d36573666357946622d6a3644366e5a514b77504e79796b336d7468626c73794843766b493047614c35366d464d3534636837684a654c4867756a6b4a416d444856325463586161664a33314a4b6a65725a77513670344d6f795659676535306b4c6c4f716936537764524d532d426b564644484457685235794837787052474c42506170634f494768752d533676445562774c344e742d5a45386877495a6d6178426d33764830495958557366784d7778714b46646277713967476c346f7a5f6e756648425f5564664f664f79557a6e6a4f626c754d38794d5f516f5937336b4a597a72325061623956456e457362375751364c6c64687738437534594d726e787765656c7a7a4239686d2d475262506b63673932485473443347523069335165686d62793552783655772d674b455876393955653776705578583266546b414b61457965366677497467597a6b57514830526770674c796a453978646d7353765570314b70556c477257524b4b7648795930304d4155384a755631474569334c63346664383070455f7130416d694f364a357578625269497864385f5a41712d4f30694a5f3942544d6654683549646e575a784867503230384279776b3674305478764b582d4d6a6d2d3171614279623945494e564e3179627144383058464930313158536e736f385572722d457470464e464f624661456b70586d486c34613478486230733941464d3756714f56744d5756554761464d426f69667579384f547a544e3734785372544b54685878707264434756636278724e6837456f744e33746b6878366e4f746c424a47476c302d38595f675748643174666a5278444b6e33444b724357482d4844687a322d37582d584d4e546f31516a4a455346774f72556e534b36754b4649646c32694f3244346d715a33747845744831566f63594a586237434b664532795a6e796676444f54313665752d5245753178776f6d636c706d4d634b5a6e50705858687462446b395a2d4554784b52456753745959457a5a50705945627a394b633539464372307a4e712d3678463975304f6c7973637553457976535f73317a47696c5a546b6b4354726774544f536a44474f6e776c6a6a654c3755326975574c4c50627a7057564d52332d543132745243786b52453645366d5965474b706565704b4b336958525451533868527a79717477445543375f356667436c58376a6c324336663834513d77313136322d6838363768747470733a2f2f6c68332e676f6f676c6575736572636f6e74656e742e636f6d2f666966652f414c73366a5f465a5f524c69766861347633325142346350534e5f6d68726d5049387271485f307a577641745631373758384d34547065747141464f4e5f56654e6a616b316e4d374f656b42634c6c79426b443873374f4a644c634d6a6a726b6c496f78786630775845755833767134467667714376556e586b69536e456430705946634e5536303966316b4276396236777a64326139757a65524b345451767951434b567367537057526c7a61616165614b42524c4653386d50474f64417179673152634d34612d6c544b777a7058796b515f4c516355487239496457656276323333535961762d5145774572655944795939314d68433672664365493967774e3863356e6e7257415f3433394730313168357350633967797136314859363274424f4e56506c414a43636632523245716c74514277316d49376e5a5658666c6666726d5a6775465653423276674e4d4a5351517667304367304f305443572d5f704865446f434a7757534c4e4e665f672d52763975464b5a7372696568753568336a4d6365647a4758746242764d574e6e2d76786f5952366f6f55514e766f416755575f704b44715645753630376c326b5049632d665252424a48686c76553551315170466267676a444e6c596c67615844626f3752595735386a774369345f6f6d6e575574415f4933554c6a7844336a4a5863414e776a5458616b68375534473838553449346346554b53776f6b5539462d743136394855357938466e4c445f6963625954397a503965704758614e43507a4e31527773437956346d32634a703069386c5f3443643235637a51464169364a45506e762d587a3756766665323176505742757362397365794d634e6e774b776a65544e7a4a4a61766e75625971685158596737776c5172323575516d596649696d5a5845523336304257585834545849514c50754539687449367753586e727a5a733734465a7a46674c3754414659574e6d39314447396c796e5f454169495a44366f5f4c415f735f6f39305956476c4f584650527337764a437a31643031767475304e6757356445303267323173547a6e6e4e6644784d455f465a565330643373656e34795f5f525948364b376679662d5476747a364d6d704439657146674c5f6b7066655856584d517577307a41385636374753436b4a6469597a65795739547449674558705a437368484c424d746d474e41547171534d3770686c503176665f4248736d63423179696a2d33586368336b765f33304239745569356573415369435152503272783738713269633174567a716b384a636d4f7257335a572d77716c71716c7554694a5742614b6b476c766b4c753967594b755662766e2d505f62387672346c4e37356955394d4c7362565a496a6d634445355a63413568797a32334e45364471355942382d56436a4669574c565a5169354a677275483266354c386373504b566f70572d382d55524c585637364e782d2d71726131525476632d4734316678754b496b6534764f6d76596f585a467531477752425a4e4a5f316e7536356178796d706b7758677370487a7149596e765443364f6e77536f4e6255366d3071764f4d66475555654e56595f6e743736586e55355f64506b6a592d316249374d4962706d463648744975397a74365344794f78594837644c5836675a75596a35577a75304e724476427163504e5f6e65616e4e445833624b6e77715f6a7837456f726845714d6d32327a787473735f4441304c307774684e614652497536505545582d4a4d3566456b364d774842644a5a466563473438746b6d6844316a50345150574a5466484d386d3545346e524548435234424a5170386156496948356e2d775f64476968474f37424a316c796c2d676355695738464e64517630437969545366396a485353455966706f47784b32456b6657325a6c3262744974354a45454b66446253796c563666596b7662415151584a58646142706f6d7147426b38452d5265594456484f757834476a63687461523731597a576d6864375a6a7a634e4a30647142495538522d6b4155716c48335657794f327259355a5252543662715751364e464c5547506e4e594d7a4c52367a58454e32696d3133456b6f6a556f46475832636e684638723057474c5946316d4d584251355564436e676a53627772316c626945636c75425133466c4366696d726674623968674471553338413854745f587562795a773378714a645f786e61586e796e6257714732513d77313136322d6838363768747470733a2f2f6c68332e676f6f676c6575736572636f6e74656e742e636f6d2f666966652f414c73366a5f47617a6f433136627358776473335a41687359566478746f3649625363354b4c6d585a50434655337643414f6b324e4534417a532d50466f716d6f4e7a6835435f584a587965564657572d4e736c683248673343366e413652704557466f6f76645572667745796b59494c725a76416152676d74596444584279476f7278524b5255504c5132786a4b357a65555a6539354156444961417a69494d43546549505934526e77514e3331334359646a5130793771547152514d5f333552454133626c39693263696d6e33327a776d75657a6547364c62686e6b575f7341394b383762796d353739443476374e3243747651564f5a4b6d61684177344a67455146796b516a4a7256374c4d682d494e6b55457264514276346d33506265384d687a41724b74635649514a614f6c4b6342374431746c77685159674b484949563861573077563263373970584c6232476e695564375158426d5352715f695645377941445f63596d382d72636436327a374d69686a6464735a5a776875544f35566e56385f32645a6f6c68337157785f644d31624d4348684f4954526e53344b59734244696c5350574f717a495847637a78637743324963686b385a53547277666c7245504b6432643544415268415f5534704736355f32764e6d6d5433737174387a575379584945496b34437a49554341753065526154623570507741744c646942534f416350687a72702d454c304c6a796a516b343554514b4d7153583073675963684f4e5843615f6a7071423333784756574c5f4f62306c717235656c6153397042312d3245494e6c6978712d4b2d36627a566c486b717955704c59544c4a4f6d37793147586c4f57517338654e756434327539756f5a72765a43484c4e336a6243637975546250746772384a355644787935416631517a535276755a39687972334d63717047715971625466556d7847504b6d34347872543055343378366b7a737243706a367a38537650625672414c5143757866653848716e6253654774483852554d38576a68746a726f304b5637454447473541622d634b464a4741426f6765315342376c514574465067675a62464e624b62375145345f6c52696c4a70754f52776d76555446786a3444667539446c6b6a564a615a59484c735344645351545a3465376b3863784f7336335038654d48686f494f4e456f3342475135427843564e5868344a33347a48594e36325643625343612d456267594653727150675258734641705f4c522d4f353976774e4b434d5f6f7270677170354c3338637078354a3864554e5455656b386444626872514c773970474655434f4777596558646c4c694d7661467a6b6b39794764574f6571657932587839793639593435426250686b2d576c367a316461505747426e68515762786b57375166437646516f4d4262537476684946485062677a6e744131544839793247594f56526a7a46674d41474b2d363761353675472d6175675339524f56335a4e324252474f6e39676b7770777848493036374354484276414334344d73367443636f6552507465517a544c796d7a564d4b44306a75397175546769313242787365534d4e324f53416d34613144565831583342714651364e4e2d4d5370506b62765a6d31762d4676744b7448344e794f3856766669364d617233646e70524e345144735a7a424b446874454c3846436b7062475a4a672d316350317645325134316661756e6d6a3177535a556443486b474c37716b4e696243454574595f4241656756764872627a5164326d5a557862496b5933504d4a765178564d53663766446a545766667939324935376a68676f37773174436e6466466f53414a47514c652d45305a687636577871636f475971664b524a67723039484d586e484642544a6a4463336c4a5761474432616c74544b70384336487a776f4f4f642d30516744527a77425f346c304b414a4b5f4e676a313733344232504f4462654c7a334f54345a613265634475706d7852744f5a3659437838566749676f4369722d315930786257383759353664364d5330774f76474f7270453857797747797055502d46715f704b506a6e666576745f73586769615a4c42757575567548475f3436675f70504138544b794451643338666e7750694172695f4b4f5a4d43344d4b436d4e47494444456a714f6b32455435594b6c6d704a3136614b63636e5166777936615a355567654c37736f6e5f72676c4f495759323952383d77313136322d68383637",
  "immutableReferences": {},
  "source": "pragma solidity ^0.8.0;\r\n\r\ncontract StrayAnimals {\r\n    uint256 public petCount = 0;\r\n\r\n    struct Pet {\r\n        uint256 id;\r\n        string name;\r\n        string breed;\r\n        uint256 age;\r\n        string gender;\r\n        string health;\r\n        string image;\r\n        address adopter;\r\n        bool isAdopted;\r\n    }\r\n\r\n    mapping(uint256 => Pet) public pets;\r\n\r\n    event PetAdded(\r\n        uint256 id,\r\n        string name,\r\n        string breed,\r\n        uint256 age,\r\n        string gender,\r\n        string health,\r\n        string image,\r\n        address adopter,\r\n        bool isAdopted\r\n    );\r\n\r\n    event PetAdopted(\r\n        uint256 id,\r\n        address adopter,\r\n        bool isAdopted\r\n    );\r\n\r\n    constructor() {\r\n        addPet(\"Thungtong\", \"Chinchilla\", 4, \"Male\", \"Vaccinated\", \"https://lh3.googleusercontent.com/fife/ALs6j_GazoC16bsXwds3ZAhsYVdxto6IbSc5KLmXZPCFU3vCAOk2NE4AzS-PFoqmoNzh5C_XJXyeVFWW-Nslh2Hg3C6nA6RpEWFoovdUrfwEykYILrZvAaRgmtYdDXByGorxRKRUPLQ2xjK5zeUZe95AVDIaAziIMCTeIPY4RnwQN313CYdjQ0y7qTqRQM_35REA3bl9i2cimn32zwmuezeG6LbhnkW_sA9K87bym579D4v7N2CtvQVOZKmahAw4JgEQFykQjJrV7LMh-INkUErdQBv4m3Pbe8MhzArKtcVIQJaOlKcB7D1tlwhQYgKHIIV8aW0wV2c79pXLb2GniUd7QXBmSRq_iVE7yAD_cYm8-rcd62z7MihjddsZZwhuTO5VnV8_2dZolh3qWx_dM1bMCHhOITRnS4KYsBDilSPWOqzIXGczxcwC2Ichk8ZSTrwflrEPKd2d5DARhA_U4pG65_2vNmmT3sqt8zWSyXIEIk4CzIUCAu0eRaTb5pPwAtLdiBSOAcPhzrp-EL0LjyjQk45TQKMqSX0sgYchONXCa_jpqB33xGVWL_Ob0lqr5elaS9pB1-2EINlixq-K-6bzVlHkqyUpLYTLJOm7y1GXlOWQs8eNud42u9uoZrvZCHLN3jbCcyuTbPtgr8J5VDxy5Af1QzSRvuZ9hyr3McqpGqYqbTfUmxGPKm44xrT0U43x6kzsrCpj6z8SvPbVrALQCuxfe8HqnbSeGtH8RUM8Wjhtjro0KV7EDGG5Ab-cKFJGABoge1SB7lQEtFPggZbFNbKb7QE4_lRilJpuORwmvUTFxj4Dfu9DlkjVJaZYHLsSDdSQTZ4e7k8cxOs63P8eMHhoIONEo3BGQ5BxCVNXh4J34zHYN62VCbSCa-EbgYFSrqPgRXsFAp_LR-O59vwNKCM_orpgqp5L38cpx5J8dUNTUek8dDbhrQLw9pGFUCOGwYeXdlLiMvaFzkk9yGdWOeqey2Xx9y69Y45BbPhk-Wl6z1daPWGBnhQWbxkW7QfCvFQoMBbStvhIFHPbgzntA1TH9y2GYOVRjzFgMAGK-67a56uG-augS9ROV3ZN2BRGOn9gkwpwxHI067CTHBvAC44Ms6tCcoeRPteQzTLymzVMKD0ju9quTgi12BxseSMN2OSAm4a1DVX1X3BqFQ6NN-MSpPkbvZm1v-FvtKtH4NyO8Vvfi6Mar3dnpRN4QDsZzBKDhtEL8FCkpbGZJg-1cP1vE2Q41faunmj1wSZUdCHkGL7qkNibCEEtY_BAegVvHrbzQd2mZUxbIkY3PMJvQxVMSf7fDjTWffy92I57jhgo7w1tCndfFoSAJGQLe-E0Zhv6WxqcoGYqfKRJgr09HMXnHFBTJjDc3lJWaGD2altTKp8C6HzwoOOd-0QgDRzwB_4l0KAJK_Ngj1734B2PODbeLz3OT4Za2ecDupmxRtOZ6YCx8VgIgoCir-1Y0xbW87Y56d6MS0wOvGOrpE8WywGypUP-Fq_pKPjnfevt_sXgiaZLBuuuVuHG_46g_pPA8TKyDQd38fnwPiAri_KOZMC4MKCmNGIDDEjqOk2ET5YKlmpJ16aKccnQfwy6aZ5UgeL7son_rglOIWY29R8=w1162-h867\");\r\n        addPet(\"Som\", \"Shiba\", 5, \"Female\", \"Vaccinated\", \"https://lh3.googleusercontent.com/fife/ALs6j_GWG-OPb-j_5J3E0biEiHCVhJiN-MOrBR5nhRW4XOQ1nz1RQP2cP4El550yHiu84Z2B2nNuTHfoPbe-xobvoPAPpDZUGX2rlcommO157GoPt52iypOQlVnD7XNaarD0Yh8rf1g6eJkEPwsp1b05WRyKSTNoshH2hSHGe6Rkf9jQ963M8tlRnuc9r3jqrm2q0sQ7J72b_c_eEDriZtDXB2rtgQaLdjzAXjLYFnFEGAdfvF32upNn3DHVJDsrZy2PLZJwXT5KVS9ISQcprwk3DqJ3mwGlKa_YkincJEACyaJ6U_RKYM5K3QTrLjQGQZ-uMVPHxuhWtvtZeo4hcZ1qe2bJCrO1VIeB1pWatrMXMT90e7VbByhsAIlqazmgZwlzkYoTNzKOuHnc89uf_tDHMzq1lhkXWLGXk2euRVjJknlNnNZvHFH05Ja6iOEWsQFAv3uYpXS92SBrBbZtiocO7L6EqH50fYeNV4J2HDOlK34M_E7qNezAjvU9w7gUG7KYAwUwuwg_3wDlrhcijJwC8g1paUTfH1wHiXnNpmXHD5j2A9NnwmlS0yFvVMdHVRXTHGxY_H_mOR0oLcFSuIaT9hEhjrYI0cRrRYdBApIA9DaW_mNZnskFt1n0z8PzemHOtwno9sOrRjJ8p_FQ1tStfomB_gu9wUT1KQKnaCMlGEi4xeiflupduwCOE39MW5AiJJrK6rD0-dCiI9bxDaDKVBlM6to3bgZENG-6W6f5yFb-j6D6nZQKwPNyyk3mthblsyHCvkI0GaL56mFM54ch7hJeLHgujkJAmDHV2TcXaafJ31JKjerZwQ6p4MoyVYge50kLlOqi6SwdRMS-BkVFDHDWhR5yH7xpRGLBPapcOIGhu-S6vDUbwL4Nt-ZE8hwIZmaxBm3vH0IYXUsfxMwxqKFdbwq9gGl4oz_nufHB_UdfOfOyUznjObluM8yM_QoY73kJYzr2Pab9VEnEsb7WQ6Lldhw8Cu4YMrnxweelzzB9hm-GRbPkcg92HTsD3GR0i3Qehmby5Rx6Uw-gKEXv99Ue7vpUxX2fTkAKaEye6fwItgYzkWQH0RgpgLyjE9xdmsSvUp1KpUlGrWRKKvHyY00MAU8JuV1GEi3Lc4fd80pE_q0AmiO6J5uxbRiIxd8_ZAq-O0iJ_9BTMfTh5IdnWZxHgP208Bywk6t0TxvKX-Mjm-1qaByb9EINVN1ybqD80XFI011XSnso8Urr-EtpFNFObFaEkpXmHl4a4xHb0s9AFM7VqOVtMWVUGaFMBoifuy8OTzTN74xSrTKThXxprdCGVcbxrNh7EotN3tkhx6nOtlBJGGl0-8Y_gWHd1tfjRxDKn3DKrCWH-HDhz2-7X-XMNTo1QjJESFwOrUnSK6uKFIdl2iO2D4mqZ3txEtH1VocYJXb7CKfE2yZnyfvDOT16eu-REu1xwomclpmMcKZnPpXXhtbDk9Z-ETxKREgStYYEzZPpYEbz9Kc59FCr0zNq-6xF9u0OlyscuSEyvS_s1zGilZTkkCTrgtTOSjDGOnwljjeL7U2iuWLLPbzpWVMR3-T12tRCxkRE6E6mYeGKpeepKK3iXRTQS8hRzyqtwDUC7_5fgClX7jl2C6f84Q=w1162-h867\");\r\n        addPet(\"Rocky\", \"Moggy\", 2, \"Male\", \"Vaccinated\", \"https://lh3.googleusercontent.com/fife/ALs6j_FZ_RLivha4v32QB4cPSN_mhrmPI8rqH_0zWvAtV177X8M4TpetqAFON_VeNjak1nM7OekBcLlyBkD8s7OJdLcMjjrklIoxxf0wXEuX3vq4FvgqCvUnXkiSnEd0pYFcNU609f1kBv9b6wzd2a9uzeRK4TQvyQCKVsgSpWRlzaaaeaKBRLFS8mPGOdAqyg1RcM4a-lTKwzpXykQ_LQcUHr9IdWebv233SYav-QEwEreYDyY91MhC6rfCeI9gwN8c5nnrWA_439G011h5sPc9gyq61HY62tBONVPlAJCcf2R2EqltQBw1mI7nZVXflffrmZguFVSB2vgNMJSQQvg0Cg0O0TCW-_pHeDoCJwWSLNNf_g-Rv9uFKZsriehu5h3jMcedzGXtbBvMWNn-vxoYR6ooUQNvoAgUW_pKDqVEu607l2kPIc-fRRBJHhlvU5Q1QpFbggjDNlYlgaXDbo7RYW58jwCi4_omnWUtA_I3ULjxD3jJXcANwjTXakh7U4G88U4I4cFUKSwokU9F-t169HU5y8FnLD_icbYT9zP9epGXaNCPzN1RwsCyV4m2cJp0i8l_4Cd25czQFAi6JEPnv-Xz7Vvfe21vPWBusb9seyMcNnwKwjeTNzJJavnubYqhQXYg7wlQr25uQmYfIimZXER360BWXX4TXIQLPuE9htI6wSXnrzZs74FZzFgL7TAFYWNm91DG9lyn_EAiIZD6o_LA_s_o90YVGlOXFPRs7vJCz1d01vtu0NgW5dE02g21sTznnNfDxME_FZVS0d3sen4y__RYH6K7fyf-Tvtz6MmpD9eqFgL_kpfeXVXMQuw0zA8V67GSCkJdiYzeyW9TtIgEXpZCshHLBMtmGNATqqSM7phlP1vf_BHsmcB1yij-3Xch3kv_30B9tUi5esASiCQRP2rx78q2ic1tVzqk8JcmOrW3ZW-wqlqqluTiJWBaKkGlvkLu9gYKuVbvn-P_b8vr4lN75iU9MLsbVZIjmcDE5ZcA5hyz23NE6Dq5YB8-VCjFiWLVZQi5JgruH2f5L8csPKVopW-8-URLXV76Nx--qra1RTvc-G41fxuKIke4vOmvYoXZFu1GwRBZNJ_1nu65axympkwXgspHzqIYnvTC6OnwSoNbU6m0qvOMfGUUeNVY_nt76XnU5_dPkjY-1bI7MIbpmF6HtIu9zt6SDyOxYH7dLX6gZuYj5Wzu0NrDvBqcPN_neanNDX3bKnwq_jx7EorhEqMm22zxtss_DA0L0wthNaFRIu6PUEX-JM5fEk6MwHBdJZFecG48tkmhD1jP4QPWJTfHM8m5E4nREHCR4BJQp8aVIiH5n-w_dGihGO7BJ1lyl-gcUiW8FNdQv0CyiTSf9jHSSEYfpoGxK2EkfW2Zl2btIt5JEEKfDbSylV6fYkvbAQQXJXdaBpomqGBk8E-ReYDVHOux4GjchtaR71YzWmhd7ZjzcNJ0dqBIU8R-kAUqlH3VWyO2rY5ZRRT6bqWQ6NFLUGPnNYMzLR6zXEN2im13EkojUoFGX2cnhF8r0WGLYF1mMXBQ5UdCngjSbwr1lbiEcluBQ3FlCfimrftb9hgDqU38A8Tt_XubyZw3xqJd_xnaXnynbWqG2Q=w1162-h867\");\r\n        addPet(\"Moji\", \"Corgi\", 5, \"Male\", \"Vaccinated\", \"https://bit.ly/3B2nfFk\");\r\n        addPet(\"Tanjira Lucy Tha-rae\", \"Bantam\", 2, \"Female\",\"Vaccinated\", \"https://bit.ly/3Oxd272\");\r\n    }\r\n\r\n    function addPet(\r\n        string memory _name,\r\n        string memory _breed,\r\n        uint256 _age,\r\n        string memory _gender,\r\n        string memory _health,\r\n        string memory _image\r\n    ) public {\r\n        petCount ++;\r\n        pets[petCount] = Pet(petCount, _name, _breed, _age, _gender, _health, _image, msg.sender, false);\r\n        require(bytes(_name).length > 0, \"Pet name is required.\");\r\n        require(bytes(_breed).length > 0, \"Pet breed is required.\");\r\n        emit PetAdded(petCount, _name, _breed, _age, _gender, _health, _image, msg.sender, false);\r\n    }\r\n\r\n    function adoptPet(uint256 _petId) public {\r\n        Pet storage pet = pets[_petId];\r\n        require(msg.sender != pet.adopter, \"You can't adopt your own pet.\");\r\n        require(pet.isAdopted == false, \"Pet already adopted.\");\r\n        pet.adopter = msg.sender;\r\n        pet.isAdopted = true;\r\n        emit PetAdopted(_petId, pet.adopter, pet.isAdopted);\r\n    }\r\n\r\n    function getpetCount() public view returns (uint256 _petCount) {\r\n        return petCount;\r\n    }\r\n\r\n    function getPetInfo(uint256 _petId) public view returns (string memory _name, string memory _breed, uint256 _age, string memory _gender, string memory _health, string memory _image, address _adopter, bool _isAdopted) {\r\n        Pet storage pet = pets[_petId];\r\n        return (pet.name, pet.breed, pet.age, pet.gender, pet.health, pet.image, pet.adopter, pet.isAdopted);\r\n    }\r\n}\r\n",
  "sourcePath": "C:\\Users\\User\\Downloads\\434_project\\page\\contracts\\StrayAnimals.sol",
  "compiler": {
    "name": "solc",
    "version": "0.8.0+commit.c7dfd78e.Emscripten.clang"
  },
  "schemaVersion": "3.4.16",
  "updatedAt": "2024-11-29T17:33:43.341Z",
  "networkType": "ethereum",
  "devdoc": {
    "kind": "dev",
    "methods": {},
    "version": 1
  },
  "userdoc": {
    "kind": "user",
    "methods": {},
    "version": 1
  }
}